:020000041000EA
:1000000000200008EB0000100D0000004D01001062
:1000100000000000000000000000000000000000E0
:100020000000000000000000000000004901001076
:10003000000000000000000049010010490100100C
:100040004901001049010010490100104901001048
:100050004901001049010010490100104901001038
:100060004901001049010010490100104901001028
:100070004901001049010010490100104901001018
:1000800010B5064C2378002B07D1054B002B02D06E
:10009000044800E000BF0123237010BDB003000836
:1000A0000000000018140010044B10B5002B03D002
:1000B0000349044800E000BF10BDC0460000000036
:1000C000B4030008181400100230800803D0013077
:1000D0000238FCD1C046C0467047EFF3108072B6BC
:1000E000704780F3108870477047FFF7FDFF72B6C6
:1000F0000F4C104DAC4209DA21686268A368043BDA
:1001000002DBC858D050FAE70C34F3E70A490B4A2F
:100110000020521A02DD043A8850FCDC08480949E4
:100120000860BFF34F8F00F085FE00F02FFEFEE762
:10013000241400103C140010B0030008C805000887
:100140000000000808ED00E0FEE7FEE700B504202F
:100150007146084202D0EFF3098001E0EFF3088016
:10016000043000F021FCFEE7014B18607047C046E8
:10017000C4050008044B1B681A00AC3212881B6AC5
:100180005043C0187047C046C40500081D4B984234
:100190000FD010D840282FD005D8002830D01028F4
:1001A00028D019481EE0802828D080235B00984280
:1001B000F7D1144816E0154B984214D008D8A02364
:1001C0001B0698421CD0124B9842EAD1A0200BE0AB
:1001D000104B98420AD0104B984209D00F4B9842CE
:1001E000DFD10F487047A420C003FBE70D48F9E7B3
:1001F0000D48F7E70D48F5E70D48F3E70D48F1E73F
:100200000020EFE706005200FF005200010000F05E
:10021000090000A0040000F0050000F0030000F059
:100220000100520002005200030052000100500081
:10023000020050000500520010B50020FFF79AFFA1
:100240000A4B1C682300B0331B68C0180368002BDE
:100250000ADB074B1868FFF799FF012263689A6071
:100260009A68002AFCD110BD0248FCE7C4050008CA
:10027000CC03000802005000064B1B68B0331B681B
:10028000C3181B68002B03DA89B241600020704755
:100290000148FCE7C405000801008A000368002B40
:1002A00004DA89B2C2608160002070470048FCE730
:1002B00001008A00064B1B68B0331B68C3181B681B
:1002C000002B03DAC36800200B6070470148FCE78D
:1002D000C405000801008A00024B1A68002A00D1F8
:1002E00018607047E0030008F0B52C246043124CFE
:1002F0001F0024681E0A2018FF24274034400F4E98
:100300001B0C356807602E6A44608360AC352D880D
:1003100080346F4364013419BF191E0433430761ED
:100320004461A36000238361059BC2610162002BCD
:1003300001D01B888381F0BDE0030008C4050008DC
:10034000F0B5836885B002AD2B80154B02681B6841
:10035000066A9B8E476A9B186B8043680095826A89
:10036000C16A040003930369C068FFF7BDFF002161
:100370003B000A0000913000FFF7B6FF216B280018
:1003800000F0C6FA0022AB5E002B06DB1F221340F2
:100390001E3A9A401300034A136005B0F0BDC046F0
:1003A000C405000800E100E0F7B52C25134C6843B4
:1003B000266869433418256901937118002D19D0F6
:1003C0008869002818D12E68002E15DA6768012484
:1003D00026004B689E40B44613689EB263461B04D9
:1003E0001E431660EA608C61BC40019BA4B24B6264
:1003F000AC60FEBD0248FCE70248FAE7E0030008F3
:1004000004028A0007028A0073B5002642690400CC
:10041000D56801962B0CB34221D01B0413601368DE
:10042000194B00691B68B0331B68C3181B68B342C3
:1004300015DA01A9FFF73EFFB0420CD10198E2693D
:1004400003681E0CDBB29A4205D9226A9B009B58B6
:10045000002B00D0984731002069FFF70DFFADB2A7
:10046000002D09D063691D6000251B68636AAB42DB
:1004700005D098476562A56163691B6873BDA36A6F
:10048000002BF8D09847F6E7C40500082C2310B5D8
:100490004343034A1068C018FFF7B6FF10BDC046BB
:1004A000E0030008F8B5194B0F001B681A002E3244
:1004B0001278824227D9002925D01F250A681540C5
:1004C00021D11900AC310C88114E60431C6AD2084E
:1004D000041929007868346000F00CFF290020001E
:1004E000FFF7CAFE3A0029003068FFF7D7FE041E66
:1004F00007D101003068FFF7BFFE03002000002B8A
:1005000000D00448F8BD0448FCE7C046C405000814
:10051000E403000801018A0003018A0010B5002AE3
:100520000DD1002914D10B4B1A681300AC331B8872
:100530005843136AC018084B1860080010BD002902
:1005400006D0064B196019005A60FFF7ABFFF5E7BC
:100550000348F3E7C4050008E40300087803000833
:1005600003018A00F7B5184F04003B680191DE686B
:100570003368834226D90025A94202D1FFF7ADFD99
:10058000050038680368002B1ADA1F220123224075
:10059000934064097268A4001419226813420DD0B4
:1005A0009A43226000240021FFF766FE019B002B86
:1005B00002D12800FFF795FD2000FEBD034CF2E7B5
:1005C000034CF3E7034CF7E7E4030008020188005B
:1005D0000301880004018A000A4B1B68DB681A6863
:1005E00082420DD959681F23420918401E3B83409F
:1005F000920050581840431E9841034BC018704752
:100600000248FCE7E40300080001880004018A00B6
:10061000A6220549D2008B580220DB439B0702D05B
:1006200001238858184070470000264010B5FFF796
:10063000EFFF0023022801D1014B1B68180010BDF9
:10064000E8030008094A83009B18D02292009858BA
:1006500007221040042807D1C022920098581F2377
:1006600003408020400018437047C04600002640E9
:1006700010B5FFF7E7FF02281CD005D8002814D0DA
:10068000012814D0002011E01223FF33984214D027
:100690001423FF33984218D0033B9842F2D10C4AFE
:1006A0000C4BD058C00FC00300E00B4810BD0B4BE3
:1006B0001868FBE7FFF7BAFFF8E7094B186904234E
:1006C0001840F3D080200002F0E7014A054BE8E72C
:1006D000000026400C05000000127A00EC03000820
:1006E000000027403C050000B023154ADB00D3582A
:1006F00010B59903DB01DB0F890BC371114B01604E
:10070000D3580F24D904DB01DB0D0381B123DB00B7
:10071000D358C90C818019002140817219092140E8
:10072000C172D9029B009B0F8373074BC90CD3582E
:1007300081815A05DB01520FDB0D8271038210BDEE
:1007400000002640840500008C05000010B5104B09
:10075000421E1B683B331B78934216D97F221F240D
:100760008030FF300B4B8000C3581A400A701A0CBF
:100770002240180A8A701A012040E2404870002086
:100780009B009B0FCA700B7110BD0348FCE7C0466D
:10079000C40500080000264001004A00F0B587B0FB
:1007A0000400FFF765FF0600002C34D101AD1422D0
:1007B0002100280000F09EFD2800FFF795FFB023E0
:1007C000254ADB00D358002B03DAAC7B023C631EC6
:1007D0009C41EA79019F531E9A41A8880132002C5E
:1007E00016D00023190000F06FFC00230C00050058
:1007F0003A003000190000F067FCE6076A0832434F
:100800006308801859412A00230000F03DFC0600CF
:10081000300007B0F0BD114B1B683B331B78A3427F
:10082000F6D301AD05220021280000F063FD200071
:1008300029008034FFF78AFFFF34074BA400E358F8
:100840000024A34203DA2C79023C631E9C412F78DA
:100850006878AA78C3E7C04600002640C4050008AF
:10086000E02210B50124094B80009200C018835883
:1008700080589B069B0F9C400F231840FFF78EFF6C
:1008800063081818210000F073FB10BD000026401B
:10089000144B30B51A680724130028331B781F2B1C
:1008A00015D883081D00A5432C1E0FD1033420400A
:1008B000A040814012689B002032D3180A00FF211B
:1008C00081401C68624011406140196030BD802346
:1008D00020401B06184380239B011268C918890019
:1008E0008850F3E7C4050008064B9A6803000648E1
:1008F00010339B00824202D1985899507047034AA6
:10090000D058FBE700ED00E00000000800000010F8
:10091000F8B506000D0000283AD00023C05E00287C
:1009200028DB7188FFF7B4FF0024FF2203279446D9
:100930000023F05E716883B21F40FF006646BA4034
:1009400089013140D243B940002815DB114E83089C
:100950009B009B19C026B6009F593A4011439951FC
:100960000D4B9A680D4B9A4202D12900FFF7BCFF4C
:100970002000F8BD0A4CD8E70F263340083B064E4E
:100980009B089B009B19DE6932401143D961E7E760
:10099000034CEDE700E100E000ED00E0000000089E
:1009A00001005600FEE7000002680A4B10B51A600D
:1009B00042685A6082689A60C268DA6002691A61A5
:1009C00042695A6182699A61C269DA61FFF7EAFF96
:1009D00010BDC04690030008B0235B059A89002A29
:1009E00002D0988980B2704780204000FBE7000069
:1009F0007FB5274B86000D00F458042901D001294A
:100A000027D100200FE0A3682B420BD1E368290017
:100A10001A685B6802920193039302A823689847BF
:100A20001C4B1C606469002C0BD01B4B9842EAD114
:100A3000012DE8D1174B18481A68184B9A5104B089
:100A400070BD012DFBD1144B9842F3D0134B9C5138
:100A5000F5E7022906D10F4B1B68181EEFD01C6961
:100A600003E01C006369002BFBD10020002CE6D0C2
:100A7000A3682B4209D1E36829001A685B680292D7
:100A80000193039302A8236898472469EEE7C046C0
:100A9000300400082C040008FF004200180400087D
:100AA000194B1B68190004C9C96F51180968016204
:100AB00019000831C96F5218126842621A00413297
:100AC0001278002A1FD09A68E0321268D2061AD52E
:100AD000F222DB68D2019A580260F022D2019A58C1
:100AE00042600A4A9A588260094A9A58C260094A82
:100AF0009A580261084A9A584261084A9A58826193
:100B0000074A9B58C3617047C40500080478000079
:100B1000087800000C7800001078000014780000BD
:100B200018780000194B1B681A1D1968D26F8A18B3
:100B3000016A11601A0008321968D26F8A18416A76
:100B400011601A0041321278002A1ED09A68E032F1
:100B50001268D20619D5F0224168DB68D20199509B
:100B600081680B4A9950C1680A4A995001690A4A3A
:100B700099504169094A99508169094A9950C16956
:100B8000084A99500168E83299507047C405000836
:100B900004780000087800000C780000107800004D
:100BA0001478000018780000B023F7B55B055A7878
:100BB00007002126002A01D05E78F6B2624D6B68EC
:100BC000002B00D07CE0FFF788FA6B680090002BC8
:100BD00000D088E05D4C22681300AC3319880723ED
:100BE0004B43126A9B181A68002AFCDADB68DA00A9
:100BF00020D51B0F1B0756480193FFF751FF55499E
:100C0000212E00D074E0902022680001131DDC6FBB
:100C100013681C1923680B40034323601300083337
:100C20001268DB6FD3181A68114008431860484BEC
:100C3000019A13438022454E9205316813430A00FE
:100C4000AC321088072200244243096A5218D3604C
:100C500054605368FFF7C0FE80235B0098425CD16C
:100C6000380000F05DFB32681300AC3319880723AD
:100C70004B43126A9B181A68002AFCDADF68FB00F3
:100C800003D538010009FFF74DFF334B32681F4091
:100C90001300AC33198807234B43126A00989B1842
:100CA0000022DF605A60FFF71CFA002C0FD16B683E
:100CB000002B03D008210120FFF79AFE2000FEBD83
:100CC00001210800FFF794FE041E00D17BE76B684A
:100CD000002B03D002210120FFF78AFE1F4B9C420C
:100CE000ECD01F4CEAE704210120FFF781FE71E7F9
:100CF000802220685200031DDC6F03681C192368E2
:100D00000B4013432360030008330068DB6FC318F4
:100D1000186801400A431A6089E732681300B0334B
:100D20001B68126A9B181B68002B0ADB04230D4A00
:100D300011690B431361012F01D030BF93E720BF2E
:100D400091E7064C8FE7C04630040008C405000850
:100D5000F0030008FF00FFFFFFFFFFDF0500420078
:100D6000FF00420000ED00E0C02280200649520052
:100D70008B58C0059B009B0803438B5080238858E9
:100D80001B0603438B5070470000264010B562B627
:100D9000034800F0C7F80020FFF706FFFBE7C04656
:100DA0000020001010B50020FFF770FB10BD704749
:100DB00010B50020FFF754FD002829D0154B18600E
:100DC000154B1B681A1D1C68D36FE4182168090EA7
:100DD000013100F0CDF8114B18602168090AC9B241
:100DE000013100F0C5F80E4B441E18600D4920007B
:100DF00000F0BEF8FA210C4B013018708900200079
:100E000000F0B6F8094B01301860094BC0031860B8
:100E100010BDC04684000008C40500088800000812
:100E20008000000840420F00940000089000000875
:100E30008C00000810B52048FFF796F9B022E02199
:100E400030201E4CD200A35889005B005B08A350E1
:100E500063588343635080235B04A350184B194AA3
:100E6000E250A02204339201E250FF22164BE250DE
:100E7000FFF77AFFC02201215200A3588B43A350F1
:100E8000FFF795FFFFF794FF104B03201A6813003C
:100E9000AC33198807234B43126A80219B18002228
:100EA000DA605A600A4AFFF739FB0A48FFF714FA7A
:100EB0000948FFF745FA10BD301300100000264026
:100EC00084050000010002008C050000C405000834
:100ED0008003000844040008E41300109023034A30
:100EE0005B01D058032318407047C04600002040E3
:100EF00010B59024FFF7F1F8074B64011A59074920
:100F00001140074A0A431A51102259681142FCD075
:100F1000FFF7E7F810BDC04600002040FCFF0000CE
:100F20000100FA05F8B590250E4C6D010700FFF79A
:100F3000D4F863590600DB439B0701D1FFF7D8FFC4
:100F400080239B00E7506359074A1A40074B13431D
:100F50006351102362681A42FCD03000FFF7C1F8D9
:100F6000F8BDC04600002040FCFF00000300FA0569
:100F7000002243088B4274D303098B425FD3030AD8
:100F80008B4244D3030B8B4228D3030C8B420DD3EB
:100F9000FF22090212BA030C8B4202D31212090279
:100FA00065D0030B8B4219D300E0090AC30B8B42B7
:100FB00001D3CB03C01A5241830B8B4201D38B0365
:100FC000C01A5241430B8B4201D34B03C01A52410A
:100FD000030B8B4201D30B03C01A5241C30A8B424D
:100FE00001D3CB02C01A5241830A8B4201D38B0238
:100FF000C01A5241430A8B4201D34B02C01A5241DC
:10100000030A8B4201D30B02C01A5241CDD2C3094D
:101010008B4201D3CB01C01A524183098B4201D3C9
:101020008B01C01A524143098B4201D34B01C01AB4
:10103000524103098B4201D30B01C01A5241C3082C
:101040008B4201D3CB00C01A524183088B4201D39B
:101050008B00C01A524143088B4201D34B00C01A87
:101060005241411A00D20146524110467047FFE7F3
:1010700001B5002000F006F802BDC0460029F7D0F7
:1010800076E770477047C046002B11D1002A0FD178
:10109000002900D1002802D00021C943081C07B450
:1010A000024802A14018029003BDC046D9FFFFFFCD
:1010B00003B4684601B5029800F030F8019B9E46E3
:1010C00002B00CBC7047C046F0B5CE46474615048A
:1010D0002D0C2E0080B50704140C3F0C9946030C10
:1010E0007E435D43674363437F19340CE4199C4698
:1010F000A54203D980235B029846C4444B46434330
:101100005143250C36046544360C2404A4195B199C
:10111000591820000CBC90469946F0BDF0B54F46DA
:101120004646D646C0B5040082B00D0091469846AA
:101130008B422FD82CD04146484600F0CFF82900EA
:101140000600200000F0CAF8331A9C46203B9A465D
:1011500000D576E04B46524693401F004B46624610
:1011600093401E00AF4228D825D05346A41BBD4152
:10117000002B00DA7BE00022002300920193012380
:10118000524693400193012362469340009318E036
:101190008242D0D900220023009201930A9B002BA7
:1011A00001D01C605D600098019902B01CBC9046A3
:1011B0009946A246F0BDA342D7D90022002300924F
:1011C00001936346002BE9D0FB079846414672081D
:1011D0000A437B0866460EE0AB4201D1A2420CD81E
:1011E000A41A9D41012024196D410021013E2418BB
:1011F0004D41002E06D0AB42EED9013E24196D417F
:10120000002EF8D100980199534600196941002B2E
:1012100023DB2B005246D3402A006446E2401C00E8
:1012200053461500002B2DDB26005746BE403300E9
:1012300026006746BE403200801A99410090019115
:10124000ACE7624620239B1A4A46DA406146130007
:1012500042468A4017001F4380E7624620239B1ABC
:101260002A0066469A402300F3401343D4E76246BF
:10127000202300219B1A0022009101920122DA40D2
:10128000019280E72023624626009B1ADE402F0051
:10129000B0466646B74046463B003343C8E7C046C3
:1012A0001C2101231B04984201D3000C10391B0A96
:1012B000984201D3000A08391B09984201D300095A
:1012C000043902A2105C40187047C04604030202B1
:1012D00001010101000000000000000010B500291C
:1012E00003D1FFF7DDFF203002E0081CFFF7D8FF35
:1012F00010BDC04603001218934200D17047197008
:101300000133F9E7F8B5C046F8BC08BC9E46704703
:10131000F8B5C046F8BC08BC9E4670470000000007
:1013200001B40248844601BC604700BF6102000866
:1013300000002040000024400000004000000000A9
:1013400000002340000030400000314000009F407A
:10135000000022400000104020202020201010100B
:101360001D1D800017007500FF03060206360410DD
:10137000200000007FC0000000040000000000000A
:101380000019324B647D00804000080B1000000003
:101390000000FF012002001F00800004FF08101859
:1013A000001000140018001C4044484C500000007D
:1013B00008100000080000000400000004100000F5
:1013C00000120000042100000021000000160000AF
:1013D00040114002C41300138013A013200000002A
:1013E0001C000000030000000100000001000000DC
:1013F0000000000005036000040000000100000080
:101400000000000001000000060460000800000069
:10141000A4050008A50D00100000000000FDFF7FDE
:101420000100000000000010000000088000000023
:101430004414001080000008F8020000B003000807
:101440001802000000093D0000127A0000093D006A
:101450000000D007A00F000004000000A900001049
:101460008100001080B230B5C00020D0104B0722A0
:101470001C682300AC331B885A43236AD3181968AD
:101480000029FCDA3E210B4B062519600A4B0B495B
:101490001960A3210A4BC9005D500A495850585899
:1014A000206A1218002050605A58002AFCDA30BD19
:1014B000C405000804012640080126401E1F000044
:1014C000000026401C05000010B54378FF2B11D109
:1014D00000F0ECF80400032000F018F9C3685A6823
:1014E000012311681943116011681942FCD12000D1
:1014F00000F0F4F810BDF7B500900020019100F065
:1015000005F93F4D06002B681A004C33B0321468C1
:101510001B780419002B5AD000F0E8F807000328C4
:101520001BD000F0C3F8374A374B0500D358002BC7
:101530003EDA364A0121300000F0C0F8002837D1E9
:101540000198FFF78FFF009B002B3ED02368002BF4
:10155000FCDB00F0EBF804002BE0062000F0D6F8EE
:101560002B68B0331B68C0180368002B02DA284CC4
:101570002000FEBD002000F0C1F8264B9842F6D0B6
:101580000023254A19001268012000F09FF8002569
:10159000A842ECD1002000F0B1F81E4A1F4B904247
:1015A00003D09D42E3D00135F4E79D42B9D1DEE797
:1015B000174C032F05D10121002000F0AFF80028BF
:1015C000F9D1280000F08AF8D2E7154CF1E700F0D5
:1015D0006DF80E4A05000121300000F06FF8002878
:1015E00009D1009B002B08D02368002BFCDB00F006
:1015F0009DF80400E5E7064CE3E7094CE1E7C04647
:10160000C4050008000026401C050000CC030008AB
:101610000500520001018800DC030008F0490200C7
:1016200001005000184BF7B51B68184A5C6804238A
:1016300011690B431361012824D030BF2300FC3310
:101640001B69002B1DD1A320114B1249124AC00067
:101650000F681E5815680195104D0D6006251D5028
:101660003E2010600E483E351D501D58002DFCDAFE
:101670000C48FC3420610F60A321C9005E50019B1F
:101680001360F7BD20BFD9E7C405000800ED00E0F6
:101690000000264008012640040126401E1F0000CD
:1016A0001C050000AAAAAAAA0000000001B4024872
:1016B000844601BC604700BFDB00001001B4024853
:1016C000844601BC604700BF9D02001001B402487F
:1016D000844601BC604700BFA903001001B4024862
:1016E000844601BC604700BFE300001001B402481B
:1016F000844601BC604700BFDD0E001001B4024803
:10170000844601BC604700BFD905001001B40248FF
:10171000844601BC604700BF7501001001B4024857
:10172000844601BC604700BF6505001001B4024853
:10173000844601BC604700BF390200100000000071
:101740000000000000000000000000000000000099
:041750000000000095
:1020000000F80F08252300100D0000009923001090
:10201000992300109923001099230010000000005C
:10202000000000000000000000000000D178001057
:10203000952300100000000071790010D579001080
:102040009523001095230010952300109523001070
:102050009523001095230010952300109523001060
:102060009523001095230010952300109523001050
:102070009523001095230010952300109523001040
:1022E00010B5054C237833B9044B13B10448AFF350
:1022F00000800123237010BD002C000800000000A6
:1023000010250D1008B5034B1BB103490348AFF36B
:10231000008008BD00000000042C000810250D10EE
:1023200070477047FFF7FCFF72B6144C144DAC4277
:1023300009DA21686268A368043BA2BFC858D0507C
:10234000FAE70C34F3E70F490F4A00209142BCBF73
:1023500041F8040BFAE70D480D490860BFF34F8FB1
:1023600000F0BAFB00F09EFB05F0D0F94DF02CF820
:102370004BF0BAFE4DF014F8FEE700001C250D10DE
:1023800034250D10002C0008682E010800200008DC
:1023900008ED00E0FEE7FEE700B5042071460842C4
:1023A00002D0EFF3098001E0EFF30880043040F041
:1023B0006DFEFEE7000000000230800803D001300F
:1023C0000238FCD100BF00BF7047EFF3108072B637
:1023D000704780F31088704708B500F0C9F800F026
:1023E00007F800F0B7F800F02DF800F039F808BD54
:1023F00008B5124A136899684FF08040C1F800048C
:102400009868B3F87010435843F47F434350126800
:1024100092F86F1003238B4092F86C1092F86E00C4
:1024200081400B43916843F00043C1F80034936846
:10243000D3F8003402483BF0C1FF08BD642901080D
:10244000A0520510054B1B6893F83D202F2A03D995
:102450009B680022C3F8BC2C704700BF64290108A8
:1024600010B5264C264A002120463EF0B9F92548F1
:102470003BF0A4FF244A012120463EF0B1F9234855
:102480003BF09CFF22483BF099FF04F54074214A41
:10249000042120463EF0A4F91F483BF08FFF1F4A5D
:1024A000062120463EF09CF91D483BF087FF1D4A5F
:1024B000072120463EF094F91B483BF07FFF1B4864
:1024C0003BF07CFF1A483BF079FF1A483BF076FF5F
:1024D00019483BF073FF19483BF070FF18483BF078
:1024E0006DFF18483BF06AFF17483BF067FF17483D
:1024F0003BF064FF16483BF061FF10BD0000314027
:1025000078530510AC530510B0530510E453051073
:10251000CC52051040530510745305100853051094
:102520003C530510D052051004530510A452051059
:10253000A8520510AC520510B0520510B452051047
:10254000B8520510BC520510C0520510C4520510F7
:10255000C8520510044B332242F208015A5042F28D
:1025600010015A50704700BF00003040FEE70000E5
:1025700070B582B09621002040F0DAFD40F078FD81
:1025800000283BD0012041F079F9012040F0C0FF44
:102590006E4A536C23F47F4343F468535364536C83
:1025A000C3F307233A2B46D0694B1B6893F83C20B2
:1025B00032B16849D1F8802322F03002C1F880237B
:1025C0001968D3F884208B5823F47F438B50604ADA
:1025D00013681868D3F88010435823F07F4343F002
:1025E0008073435013681868D3F88010435823F45D
:1025F0007F434350136893F83B5026E040F028FD9A
:10260000544BD3F8803113F0010F06D1514AD2F860
:102610000C3523F00043C2F80C354E4BD3F80C2593
:1026200042F00042C3F80C25D3F80C2542F0010219
:10263000C3F80C25A6E7536C23F0005323F468532A
:1026400043F468535364AFE7013DDDB16C1E404B6A
:102650001B6893F83B309C42F6D23E4E05F27F1445
:1026600056F8243023F0405343F0005346F824300A
:10267000012040F0E3FC56F8243023F0004346F8F4
:102680002430E1E7002101203FF06CFF304B1B6854
:1026900093F83C3003B901BE2E4BD3F8803313F0CE
:1026A0000F0F3BD02B4BD3F8882522F0405242F03D
:1026B0000052C3F88825D3F8802522F00042C3F8E1
:1026C0008025D3F88C2522F00042C3F88C25002108
:1026D00008463FF047FF1E4B1B6893F83C3033B170
:1026E0001C4AD2F8803323F00F03C2F880331A4D0E
:1026F0000024009423462246214628463EF08AF9CB
:10270000009423462246012128463EF083F90F4AD1
:10271000136843F008031360104C25E000203FF0DD
:102720004FFF40F211139842BCD1094B1B6893F83C
:102730003C30002BB6D0074AD2F8803323F00F0389
:1027400043F00103C2F88033ACE700BF000027402C
:1027500064290108000026400000314040420F007B
:10276000012040F06BFC013C9C4B1B6913F0040FF3
:1027700001D1002CF4D1002C00F019810023002B92
:1027800040F01781964AD2F8003523F0030343F056
:102790000103C2F80035934C23681968D3F88420EC
:1027A0008B5823F47F438B5023681968D3F880201B
:1027B0008B5823F07F438B5023681968D3F880200F
:1027C0008B5823F47F438B50002101203FF0CAFE39
:1027D000236893F83C3043B1814AD2F8803323F028
:1027E0000F0343F00103C2F88033002108463FF095
:1027F000B9FE002102203FF0B5FE002103203FF08A
:10280000B1FE002104203FF0ADFE002105203FF085
:10281000A9FE75483FF03CFF002840F0CE80734889
:102820003FF0E6FF002840F0CC806E4B1B6893F829
:102830003C2032B16A49D1F8802322F00F02C1F85E
:10284000802393F83C3033B1654AD2F8803323F0CB
:102850003003C2F88033002101203FF083FE644939
:10286000022040F027F8002840F0AF8042F21071BB
:10287000022040F023F9002840F0AB80594B1B6840
:1028800093F83C20022A06D95549D1F8882322F032
:102890000F02C1F8882393F83C20022A08D9504936
:1028A000D1F8882322F0300242F01002C1F88823C8
:1028B00093F83C30022B06D9494AD2F8883343F0CA
:1028C0000043C2F88833474B1B6893F83C20032A27
:1028D00008D94349D1F88C2322F00F0242F00202BA
:1028E000C1F88C2393F83C20032A06D93C49D1F83F
:1028F0008C2322F03002C1F88C2393F83C30032B58
:1029000006D9374AD2F88C3343F00043C2F88C33EF
:10291000344B1B6893F83C20042A06D93049D1F87F
:10292000902322F00F02C1F8902393F83C20042A50
:1029300006D92B49D1F8902322F03002C1F8902318
:1029400093F83C30042B06D9254AD2F8903343F053
:102950000043C2F89033214A136823F44073136094
:102960001F4BD3F80C2542F00042C3F80C25D3F8D6
:102970000C2542F00102C3F80C256421002040F030
:10298000D7FB00F04BF81B483BF018FD1A483BF012
:1029900015FD1A483BF012FD19483BF00FFD194890
:1029A0003BF00CFD18483BF009FD02B070BD174B21
:1029B000E5E60520FFF7DAFDE4E60420FFF7D6FDA3
:1029C0002DE70420FFF7D2FD2FE70320FFF7CEFD10
:1029D0004CE70320FFF7CAFD50E700BF0000274087
:1029E0000000264064290108E8530510400D03004B
:1029F00014540510FC530510005405100454051020
:102A0000085405100C5405101054051002004A001B
:102A100008B501203EF0C8F908BD704708B5002090
:102A200040F0B0F958B30346154A1060154A1168D2
:102A30000868D1F880208258120E0132B3FBF2F2FE
:102A4000114802600868D1F884208258C2F3072236
:102A50000132B3FBF2F30D4A1360013B0C4AA2FBB7
:102A60000312920C01320B490A700B4AA2FB03239A
:102A70009B090133094A1360DB03094A136008BD4F
:102A8000E422000864290108E8220008E022000886
:102A900083DE1B43F4220008D34D6210F0220008AD
:102AA000EC22000808B509483DF01AFEFFF7B5FF13
:102AB000FFF7B4FF0022114603203EF0BFF904489F
:102AC0003EF03EF803483EF08FF808BDB0600610B7
:102AD0001C2C00081C54051008B5FFF776FC074AAB
:102AE000D2F8883043F47003C2F88830BFF34F8FB8
:102AF000BFF36F8FFFF76DFC08BD00BF00ED00E076
:102B000008B5044840F020FD08B1002008BD024887
:102B1000FCE700BFF82200080000020600487047EA
:102B2000A42D000810B584B03BF046FC044630B13B
:102B3000FFF752FC3CB154B1204604B010BD3CF04C
:102B400015FD0446F4E7FFF7DBFF0446F3E7132324
:102B500002931223019311230093102315221421B1
:102B600002483CF0D7F80446E6E700BFA42D000871
:102B7000034B0360034B0B6082231360704700BF5D
:102B800030340008182E0008034B0360034B0B6021
:102B90004FF4827313607047F83800082030000843
:102BA00070B582B00446002301931D4B1B7823B1FE
:102BB0001B4B1B786BB902B070BD1A483BF0B0FDDF
:102BC000034600B101BEB3FA83F04009144B1870FC
:102BD000EEE7FFF7FAFB064606F088FB05463046AF
:102BE000FFF7F7FB002DE6D04FF47A7101FB04F4F8
:102BF0000D49A1FB0431012301AA890909483CF0D0
:102C0000EDFC0028D7D1019B4FF47A7000FB03F054
:102C1000054BA3FB0030800906F050F8CBE700BF5E
:102C2000042E0008082E0008D34D621008B507F0E6
:102C30003AF803680BB14068984708BD2DE9F047A2
:102C400084B00C9D002842D0884691461E46074617
:102C5000B5F5967F3DD313B113F0070F3DD17EB389
:102C6000002404F59B6004F0C3FD8246002836D0A2
:102C700025F00705AD0836B3544403220021012096
:102C800005F0C7F8C4F8C804F8B1184BC4F8CC3440
:102C9000C4F8D0A414F0070F00D001BE029401962E
:102CA0009DF8343000930E9B2A464946404605F075
:102CB000D9FE3860844214D0A8B101BE002009E0DA
:102CC00025F00704CDE70646D6E701BEDDE7084854
:102CD00000E0074804B0BDE8F0870648FAE7064878
:102CE000F8E70020F6E70020F4E700BF01EFCDABE6
:102CF00005000E0606000E0601000E0610B506F0D1
:102D000013FB0446D0F8CC24074B9A4204D001BEF2
:102D1000204606F0BBF9FBE700231A461946D0F817
:102D2000C80405F0BDF8F3E701EFCDABE0B110B595
:102D30000446006805F006FF246805F0B1FFD4F8EA
:102D4000CC240A4B9A4203D006F05EF8002010BD56
:102D50000023C4F8CC34D4F8C80405F071FCD4F8CE
:102D6000D00404F055FDEFE70148704701EFCDAB0B
:102D700005000E06A8B110B504460368D3F8CC14BC
:102D8000094A914203D000200023236010BD4FF078
:102D9000FF31D3F8C80405F0E3FA2046FFF7C6FF79
:102DA000F2E70248704700BF01EFCDAB05000E0609
:102DB00080B110B50446017131B1042005F03AF933
:102DC000206028B1002010BD012005F033F9F7E79D
:102DD0000148F8E70148704701000E0605000E069D
:102DE000B0B108B54FF47A7303FB01F1094BA3FBB3
:102DF0000131890903792BB1006805F07FFB28B107
:102E0000002008BD006805F0ABFAF8E70248F8E7D3
:102E100002487047D34D621000000E0605000E06F2
:102E200088B108B503792BB1006805F00EF940B1FF
:102E3000002008BD00231A461946006805F030F846
:102E4000F5E70248F5E70248704700BF02000E06AA
:102E500005000E0628B108B5006805F0F1FB00205A
:102E600008BD0148704700BF05000E0658B110B5F7
:102E700004460846114604F0F3FF206008B1002024
:102E800010BD0248FCE70248704700BF01000E0673
:102E900005000E06B8B108B54FF47A7303FB01F1D3
:102EA0000C4BA3FB013189093AB10022114600689D
:102EB00005F046FB48B1002008BD006805F050FA57
:102EC00028B10020F8E7044870470448F4E70348B5
:102ED000F2E700BFD34D621005000E0600000E069B
:102EE00088B108B531B10021006805F034F940B16E
:102EF000002008BD00231A461946006804F0D0FFE0
:102F0000F5E70248F5E70248704700BF02000E06E9
:102F100005000E0628B108B5006805F091FB0020F9
:102F200008BD0148704700BF05000E0668B110B526
:102F30000446134608460022194604F06AFF206042
:102F400008B1002010BD0248FCE70248704700BFEE
:102F500001000E0605000E06C8B110B5C9B13BB19F
:102F600000231A46006805F090F870B1002010BDEB
:102F70004FF47A7303FB02F2074BA3FB02320023E8
:102F80009209006804F08CFFEFE70448EFE704487B
:102F900070470348EBE700BFD34D621002000E06F6
:102FA00005000E06B8B110B5B9B133B10022006802
:102FB00005F0C6FA68B1002010BD4FF47A7303FB28
:102FC00002F2074BA3FB02329209006805F01CF9DC
:102FD000F0E70448F0E7044870470348ECE700BF17
:102FE000D34D621002000E0605000E0628B108B58A
:102FF000006805F025FB002008BD0148704700BFB0
:1030000005000E06F0B1F0B583B00646E2B1A9B9ED
:1030100001271D46144608204CF00CFA0346A8B1BF
:10302000046045600A4A00923A460121094806F0C8
:10303000A3FC306020B1002003B0F0BD0027E8E71A
:103040000548F9E7054870470448F5E70248F3E703
:103050002D2C001024EB051001000E0605000E06B5
:1030600018B310B582B004464FF47A7202FB01F235
:103070000F49A1FB0232006800230093920904214A
:1030800006F096FC012803D068B1002002B010BD04
:10309000246805F00DFE002300930246012120461E
:1030A00006F086FCF0E70348F0E70348704700BFEE
:1030B000D34D621002000E0605000E0678B100B571
:1030C00083B00068002200921346032106F070FCD2
:1030D00018B1002003B05DF804FB0248FAE702488B
:1030E000704700BF02000E0605000E06A0B130B505
:1030F00083B00446006806F0D6FD0546206800222D
:1031000000921346052106F053FC38B128464CF0D6
:1031100099F9002003B030BD014870470148F9E734
:1031200005000E0602000E0600B32DE9D84804463D
:1031300005F0BEFD064600274201C30E121A63EBDE
:103140000703990041EA9271900080197941CB0000
:1031500043EA5073C200104619464FF47A720023B6
:103160004BF040FF20600020BDE8D8880048704741
:1031700005000E062DE9304800254201C30E121A43
:1031800063EB05039B0043EA92739200101843EB34
:103190000501CB0043EA5073C200104619464FF4B4
:1031A0007A7200234BF06EFF05F0A8FE0020BDE808
:1031B000308810B582B0044600234FF0FF326946D4
:1031C0002046FFF7EFFE0028F6D1009B13B10198CF
:1031D0009847F1E7FFF792FD02B010BD70B584B0DB
:1031E00004460D4601B100B901BEAB6813B16B686E
:1031F00003B901BE002323606360A360296901B99C
:10320000102108222046FFF791FE064678B90123D7
:103210002372201DEA686AB1AB6869682D78029450
:10322000019500910749FFF709FD064620B9304690
:1032300004B070BD044AEFE7002323722046FFF775
:10324000D5FEF4E7B331001050540510037A63B390
:1032500010B582B00446012B08D00023227A032A3D
:1032600011D1227AC2B9184602B010BD00220092D4
:10327000019213466946FFF76FFE03460028F2D11C
:1032800002222272EAE7201DFFF774FD03460028A0
:10329000E9D103222272E4E72046FFF7A7FE0346A6
:1032A0000028E0D100222272DDE700231846704793
:1032B00070B582B00D461646044688B195B1FFF749
:1032C00084F8237A012B0FD1FFF783F8009501963C
:1032D00000231A4669462046FFF73EFE02B070BD45
:1032E00001BEEBE701BEEAE7FFF773F80048F5E738
:1032F00020000E0610B586B00E4B02AC0FCB84E852
:103300000F00204600F064FC50B10B4B00930023EB
:1033100001220A49104600F03FF8002006B010BD17
:10332000074B0093002303220449012000F034F8E6
:103330000120F3E75C540510A854051080540510D3
:103340008854051000B583B000F03EFC00F050FC3E
:10335000054B0093002303220449012000F01CF8D0
:1033600003B05DF804FB00BF6C54051080540510D9
:1033700070B50446164608464CF05CF850B1054658
:10338000324621684CF0DBF820684CF05BF8256091
:10339000012070BD0020FCE7F0B585B00025039545
:1033A0000295002A5ED0154682425BDC002B5BD082
:1033B0001A78002A5AD000271C460E460BB15B78BB
:1033C00023B930464DF04DFC074402370CB1A378C9
:1033D00003B94037403738464CF02CF802900028AB
:1033E00040D014B12378002B4FD1042D40D90025B3
:1033F0000CB163784BB93346354A791B029828449F
:103400004DF0C4FB002842DD05440CB1A3788BB914
:10341000029B5B225A556C1C03AA391B029820445C
:1034200039F056FD002836D0039D2544029B5D22CD
:103430005A5501351DB1029B20225A5501350BAB5F
:1034400001937C1B0A9A2146029828444EF076FD8F
:10345000844224D9002837DD02984DF099FA029869
:103460004BF0F0FF05B0F0BD0827A5E70827A3E75C
:10347000184B53F82530164A39464DF087FB051E88
:10348000B6DC02984BF0DEFFECE70025B0E70298CF
:103490004BF0D8FFE6E7029B00225A55CAE72844C2
:1034A000441C3A46214602A8FFF762FF18B9029869
:1034B0004BF0C8FFD6E70BAB01930A9A611B029849
:1034C00028444EF03BFDC5E702984BF0BBFFC9E72F
:1034D000CC540510D454051048B1026843689A4290
:1034E00007D842B10BB90120704700207047012076
:1034F0007047012070470120704700604060002342
:103500008360704710B40024446004608160C2602E
:1035100023B9002303755DF8044B70470123036151
:103520000475F8E7006AB0FA80F040097047036953
:103530008B4201D00020704701207047D0E9022360
:10354000D1E902018B4208BF824207D3994208BFEA
:10355000904201D300207047012070474FF0FF30A8
:103560007047000070B582B004460D4601230B750C
:10357000836A01338362416A8B4231D312F0010FB7
:103580001ED1036A8B4219D9012656B30026224B5D
:1035900000930023032221490120FFF7FDFEE36A87
:1035A000226B21461E4839F089FB58B104F13800DE
:1035B0003AF0B8F9636A0133636212E00026E4E787
:1035C0000126E4E7174B0093002302221349012050
:1035D000FFF7E2FE2EB1A36A013BA36203200BE0DA
:1035E00000265EB923686C602B6025605D6004F185
:1035F00034003AF0F7F9002002B070BD0A4B009396
:103600000023042205490120FFF7C6FE63686B60B2
:103610002C601D606560EAE7105605100456051021
:1036200049360010405605106C56051070B5054619
:103630000E460024046204E005F134003AF0D2F9A9
:103640000134B442F8D370BD2DE9F04782B005468D
:1036500000F1380840463AF0C5F901274FF000095B
:103660006EE0534B00930023042252490120FFF7E0
:1036700093FE6B6A013B6B6230463AF0C9F84046F4
:103680003AF0B0F902B0BDE8F0874B4B009300234D
:10369000042248490120FFF77FFE6B6A013B6B6201
:1036A000574666E0EA69934263D9444B009300238E
:1036B000042240490120FFF76FFE6B6A013B6B62F9
:1036C000274656E001235CE001235AE000243046FF
:1036D0003AF09EF819E00024F9E70024F7E7012307
:1036E00000E001232BBB6C68236862685A60636842
:1036F00022681A60002323606360D4B1D4F8089074
:103700000323237530463AF083F8BCB1E2682146C2
:103710002846C847002F47D030463AF059F8AB6AE0
:10372000013BAB62002DDCD06B689D42D7D00023FB
:10373000D8E730463AF06CF84FF00009002FA1D0DE
:103740004EF6602105F134003AF024F9044605F103
:10375000440630463AF03CF82846FFF7E3FE82463E
:1037600000287FF47EAF6B6A2A6A93428DD8002CC2
:1037700098D0002CAAD0002DA6D06B689D42A1D075
:103780000023002BA7D16C68236862685A606368C5
:1037900022681A60002323606360002C9DD00323FD
:1037A0002375D4F8089092E74FF00009C6E700BFF0
:1037B000A856051004560510E456051020570510AC
:1037C0002DE9F0470C460960496001F108038B6060
:1037D000CB600368CB6143680B628368CB62C368CC
:1037E0000B6301F11000FFF788FE04F138084FF673
:1037F000FF72002140463AF037F80546E0B101215A
:1038000004F1440039F064FF074628B34FF6FF7215
:10381000002104F134003AF027F8814600B3224633
:103820001D4904F13C0039F0AFFA8246E0B181460F
:1038300007460546002603E08246814607460326E2
:103840003EB1ADB9C7B9B9F1000F1AD1BAF1000F45
:103850001CD13046BDE8F087824681460326EFE75B
:1038600082463D460326EBE74F464D460326E7E7F3
:1038700040463AF02BF8E5E704F1440039F058FFF0
:10388000E1E704F134003AF021F8DFE704F13C000D
:1038900039F0B8FADDE700BFF139001010B5044681
:1038A0003C3039F0AFFA04F134003AF00FF804F18B
:1038B00038003AF00BF804F1440039F039FF10BD3C
:1038C0002DE9F04182B00C46FFF77AFF074620B1A0
:1038D0004FF00008464600252FE004F14405284635
:1038E00039F076FF002603E0636A01336362013634
:1038F000E369B34216D9E36A226B21461C4839F0CA
:10390000DDF90028F0D1284639F082FF194B0093E9
:103910000023012218491046FFF73EFD4FF0010831
:103920000327D8E7284639F073FF4FF00108D2E7A4
:1039300004F1380039F0F6FF0135B542F8D31FB96C
:10394000384602B0BDE8F08131462046FFF76EFEF2
:10395000002504E004F1380039F0E4FF0135B542F8
:10396000F8D3B8F1000FEBD02046FFF797FFE7E759
:1039700049360010B05505100456051008B500234F
:103980008360C36005230375036913F0010F00D042
:1039900008BD4BF057FDFBE770B582B004460D46FD
:1039A00039F078FAD5E90223994208BF904209D24A
:1039B000121A63EB01031546002B08BF0A2A02D234
:1039C0000A2500E00A2500222946204639F0C2FADD
:1039D00008B102B070BD044B0093002302220349DA
:1039E0000120FFF7D9FCF4E7DC550510045605105B
:1039F000F0B583B0054601902C4B009300230422C0
:103A00002B490120FFF7C8FC05F14407384639F07F
:103A1000DFFE2846FFF786FD68B3384639F0F8FE2A
:103A20002846FFF73BFF28464BF00CFD3CE0012306
:103A30007BBB74B339F02EFAD4E90223994208BF54
:103A4000904220D3236862685A60636822681A60D3
:103A5000002626606660174B009333460422144903
:103A60000120FFF799FC324621692846FFF77AFDCD
:103A700020464BF0E7FC15F108030AD0EC68A3429E
:103A8000D5D00023D4E7214605F13C00FFF784FFA1
:103A900007E0094B00930023042205490120FFF7AA
:103AA0007BFC384639F0B4FE03B0F0BD5457051026
:103AB000045605107C570510A05705102DE9F0435A
:103AC00083B080460D4616460C7D042C0ED8DFE8E8
:103AD00004F0171717031700384B00930023022236
:103AE00037490120FFF758FC00270AE0354B0093C7
:103AF0000023012232491046FFF74EFC002700E068
:103B0000012706B13470002F4AD004232B75012CF5
:103B100003D0022C0BD0002043E02B686A685A6067
:103B20006B682A681A6000202860686039E008F134
:103B30000806D8F80C904C46A64206D029462046E6
:103B4000FFF7F5FC10B96468F6E7002464B316B318
:103B50004E451ED000230BB14FF000094C4500D05C
:103B60000027236862685A60636822681A602046EA
:103B70004BF068FCD7B1DEB1D8F80C108E420DD0F6
:103B80000023BBB9C1B108F13C00FFF705FF0020DD
:103B900007E00123DFE74FF00009DFE70123F0E74B
:103BA000052003B0BDE8F0830020FAE70020F8E725
:103BB0000020F6E70020F4E70020F2E7DC570510CC
:103BC000045605101C58051000487047C03D0008F9
:103BD00010B50446FFF780FC034608B1184610BD37
:103BE00002492046FFF76CFE0346F7E7C03D000898
:103BF000002800F0AA802DE9F04782B0044600F1C9
:103C00004408404639F0E4FD676A05E0012309E015
:103C1000012307E00025BDB1002CF9D063689C4268
:103C2000F4D00023002BF5D165682B686A685A60D0
:103C30006B682A681A6000232B606B60002DEAD045
:103C40002846FFF79BFEE6E714F1080A36D0E6683F
:103C5000B24510D000239946002B3BD1002E30D026
:103C600039F018F9D6E90223994208BF904204D2EC
:103C70004FF001091DE00123EDE7364B00930023CF
:103C8000042235490120FFF787FB12E001230BBB1B
:103C9000E668336872685A60736832681A60002395
:103CA00033607360B6B13069FFF768FE30464BF0A1
:103CB000C9FBE3689A45E9D00023E8E74FF0010922
:103CC00008E04FF0010905E001230AE0012308E0C4
:103CD0002E46C6B114F11003F8D062699342F3D0B6
:103CE0000023002BF4D16669336872685A607368E8
:103CF00032681A60002333607360002EE9D03046CA
:103D0000FFF73CFEE5E739462046FFF78FFC4046CB
:103D100039F07EFD002504E004F1380039F002FEA0
:103D20000135BD42F8D3B9F1000F03D1002002B034
:103D3000BDE8F0872046FFF7B1FD084B9C4206D056
:103D400020464BF07FFB0020F1E701207047002068
:103D5000EDE700BF0055051004560510C03D0008F2
:103D600068B138B56AB173B11D4614460A460123DD
:103D700001462046FFF7C6FB2C60002038BD01201D
:103D800070470120FAE70120F8E7F8B5F8B10446DA
:103D9000F9B10AB10523137015460E4604F1440724
:103DA000384639F015FD2046FFF7BCFB50B92A46CE
:103DB00031462046FFF782FE0446384639F028FD9A
:103DC0002046F8BD384639F023FD0424F8E70124E5
:103DD000F6E70124F4E77047062811D8DFE800F081
:103DE000041206080A0C0E0007487047074870477F
:103DF00007487047074870470748704707487047AB
:103E0000074870470748704730550510485505105A
:103E10005C55051068550510805505109055051026
:103E2000A0550510385505100B7D0AB9032B2CD071
:103E3000013BDBB2012B0FD949B34B681BB30A68B6
:103E400002B101222AB30A6853604B680A681A60FB
:103E5000002008604860704700B585B00DF10F0282
:103E6000FFF72CFE05280BD1FFF7B6FF01900A4B98
:103E700000930023022209490120FFF78DFA022056
:103E800005B05DF804FB0022DCE70220704700204B
:103E900070470020704700BF5058051004560510A9
:103EA0002DE9F04130B3074631B3012A03D901258A
:103EB0002846BDE8F08116460C4600F1440840460D
:103EC00039F086FC3846FFF72DFB20B1042540462B
:103ED00039F09EFCECE7002221463846FFF7A4FFAC
:103EE00005460028F3D1324621463846FFF73AFB13
:103EF0000546ECE70125DBE70125D9E72DE9F84F79
:103F0000002800F0A1800446002900F0A180164698
:103F10000D46002A48D000F1440A504639F058FCBA
:103F20002046FFF7FFFA002843D100222946204609
:103F3000FFF77AFF0746002840F0818018204BF0F9
:103F400079FA8046D0B34FF00009C0F80090C0F86D
:103F50000490C0F80890C0F80C90C0F81090C0F819
:103F6000149038F097FFC8F80490C8F800908219B0
:103F700041F10003C8E90223C8F81050C34614F108
:103F8000080922D0D9F8043099451CD00023F3B990
:103F9000D9F80460B1453FD031465846FFF7CEFA14
:103FA00000282FDB7668F5E70022FFF779FF074648
:103FB0004BE0504639F02CFC042746E0504639F0DF
:103FC00027FC032741E00123E1E70123DFE7D9F8DC
:103FD0000430C8F80430C8F80090C3F80080C9F86D
:103FE000048002232B75B9F1000F21D0E1688945C7
:103FF0001CD0002303B1002188451BD0504639F066
:1040000007FC22E03368C8F80460C8F80030C6F83E
:104010000080C3F80480E4E7A368C8F80490C8F8F7
:104020000030C4F80880C3F80480DAE70123E1E730
:104030000021E1E704F13C00FFF7AEFCDEE750466B
:1040400039F0E6FB022700E001273846BDE8F88F8B
:104050000127FAE7012303731846704700B1016096
:1040600070470000094B1B680BB10120704700B579
:1040700083B0074B00930023012206491046FFF747
:104080008BF9002003B05DF804FB00BF0C3E000874
:104090004C5D0510445D051030B583B078B1154610
:1040A000027802B3C26814680A4681684068A04773
:1040B000044670B901232B70204603B030BD0C4B71
:1040C0000093002301220B491046FFF765F90224F3
:1040D000F2E70190084B00930023012205491046A6
:1040E000FFF75AF9E8E743680B6000242C70E3E718
:1040F000445E0510445D0510685E05102DE9F04131
:1041000082B00746D0F8A83043B907F140084046CE
:1041100039F05EFB07F13805002429E00190344BAB
:1041200000930023042233490120FFF735F9D7F823
:104130008C0002F0E9FD0023C7F8A830C7F88C30E6
:10414000C7F894307B6A013B7B62DEE76C6811E064
:10415000002464B1666823685E60636822681A6040
:10416000002323606360204600F04CF834465CB1C5
:10417000002CEBD0A542EBD000212046FFF76AFFD0
:104180000028E6D16468F5E7404639F041FB7B78CA
:104190006BB1BB689B6978689847F0B90197164B7B
:1041A00000930023032213490120FFF7F5F807F1DC
:1041B0001C0039F0BDFA404639F0BAFA01970F4BAE
:1041C0000093002304220B490120FFF7E5F838464D
:1041D0004BF038F902B0BDE8F0810197084B00932D
:1041E0000023022203490120FFF7D6F8DFE700BFD2
:1041F000905E0510445D0510FC5E0510305F0510F3
:10420000C05E051008B5836803B108BD4BF01AF90C
:10421000FBE770B582B00646084614461D46099B6A
:10422000089A079901F026FD034668B9099B1A68A8
:1042300082F8306002F13803009302F144033C320B
:1042400006992846A0470346184602B070BD0000F4
:1042500010B582B01446052382F880304FF47A738B
:1042600003FB01F1C2F8A810C2F8AC1002F19401EE
:1042700002F18C0002F00EFD68B904F1780304F13C
:10428000600221460948FFF76BFD636A01336362F0
:10429000012002B010BD064B009300230122054906
:1042A0001046FFF779F80020F3E700BF695A0010C5
:1042B0006C5D0510445D05102DE9F04182B00546A6
:1042C0000E461746B0204BF0B5F8044660B3B02256
:1042D00000214BF058F92570F368A36004F10C033A
:1042E00006F1100292E8030083E8030001216162F5
:1042F00004F11C0039F0ECF9054608BB2A4B009389
:104300000023012229491046FFF746F8A84628460F
:1043100030B9B8F1000F38D1002D3BD1002C3ED17F
:10432000204602B0BDE8F081214B0093002301221A
:104330001E491046FFF730F80025A8462846E7E753
:10434000002104F1400039F0C3F9804698B104F12E
:104350003803A363E36304F12803A362E36204F177
:10436000300323636363002FD2D0224639463046A0
:10437000FFF76EFFCCE70F4B0093002301220B49A0
:104380001046FFF709F84046C2E704F1400039F053
:10439000CFF9C1E704F11C0039F0CAF9BEE72046A5
:1043A0004BF050F80024BBE7D45D0510445D0510C8
:1043B000A45D05100C5E051010B5002380F83030A8
:1043C000546834B1084693682246012102F03AFE4F
:1043D00010BD0020FCE70000D0F8A8300BB9002089
:1043E000704710B582B00446094B009300230422A5
:1043F00008490120FEF7D0FFFFF7E6FBD4F8AC2018
:10440000A16FFFF77BFD08B902B010BD0620FBE7E6
:10441000A45F0510445D051030B583B004461D4609
:104420009DF8183063B1D3685B690846984788B136
:104430000D4B0093002302220C490120FEF7ACFF34
:1044400015B1284601F0E0FC14B12046FFF756FEF6
:1044500003B030BD064B0093002303220349012023
:10446000FEF79AFFECE700BF5C5F0510445D0510A6
:10447000805F051010B50446037A73B1FFF7A4FB03
:104480000022A16AFFF781FC00B110BDFFF79CFB81
:104490002246A16A01F08AFDF7E7012101F066FCDE
:1044A0000028F2D0204601F0AFFCEEE710B504463C
:1044B000002904DB0022064901F0AEFD10BDFFF724
:1044C00083FB2246A16A01F0B7FF0020F6E700BF98
:1044D0003964001070B584B0044600F11C0528460C
:1044E00039F076F9237E83F0010673B101940E4B07
:1044F0000093002302220D490120FEF74DFF2846BC
:1045000039F086F9304604B070BD636A5A1C6262A5
:10451000039202930194064B009300230422034963
:104520000120FEF739FFEAE70C5D0510445D051038
:10453000CC5C051070B584B0044600F11C0528461B
:1045400039F046F9636A5A1E62620392029301943B
:104550000F4B0093002304220E490120FEF71CFF9D
:10456000636A33B10026284639F052F91EB904B007
:1045700070BD0126F7E70194074B00930023042246
:1045800004490120FEF708FF2046FFF7B7FDEEE7DC
:10459000CC5C0510445D0510945C051000B583B03B
:1045A000114B0122BFF35B8F53E8001F002903D199
:1045B00043E800200028F7D1BFF35B8F0BD10B4BF2
:1045C0000093002303220A490120FEF7E5FE0020A4
:1045D00003B05DF804FB074B00930023022204495B
:1045E0000120FEF7D9FEF2E70C3E00086C5A0510D8
:1045F000445D0510345A051000B583B0114B0022FC
:10460000BFF35B8F53E8001F012903D143E800206B
:104610000028F7D1BFF35B8F0AD10B4B0093002327
:1046200003220A490120FEF7B7FE03B05DF804FB40
:10463000074B00931346022204490120FEF7ACFE0B
:10464000F3E700BF0C3E0008D8580510445D051084
:10465000A4580510F0B585B006460D4617461C4611
:1046600000230393FFF7FEFCD8B90B248CB9AB6988
:104670002BB12A781AB1039A93656B69D3652B78AD
:10468000002B37D139460398FFF710FF0446002866
:1046900035D1002C44D0039800284DD001F0B4FB54
:1046A0004AE030780A9B009323463A46294602F0B6
:1046B00051FF08B90324D9E703AB224639463046F7
:1046C00001F0D8FA04460028D0D10399012381F8DB
:1046D0003030337813B101F1400300E00023009340
:1046E00001F1380301F144023C31284602F088F818
:1046F0000446BBE703990A98FFF7B0FCC2E70196AE
:104700000F4B0093002301220E491046FEF744FE92
:104710002B78002BBDD000210A98FFF79FFCB8E74B
:104720002B7803B101240196074B00930023032249
:1047300004490120FEF730FE204605B0F0BD00BF61
:10474000EC5A0510445D0510285B05100B281DD898
:10475000DFE800F0061E080A0C0E10121416181AD4
:104760000C4870470C4870470C4870470C4870471D
:104770000C4870470C4870470C4870470C4870470D
:104780000C4870470C4870470C4870470C487047FD
:104790000C487047305505100C5C05103855051055
:1047A0005C550510245C0510345C0510485C051050
:1047B000605C0510685C0510785C0510845C051071
:1047C000A0550510045C0510062811D8DFE800F09C
:1047D000041206080A0C0E00074870470748704785
:1047E00007487047074870470748704707487047B1
:1047F0000748704707487047945A0510A45A051097
:10480000AC5A0510B85A0510C45A0510CC5A0510F8
:10481000D85A05109C5A0510F0B583B004460D46D1
:1048200016461F46FFF71EFCE0B13B46324629788C
:10483000204602F011FFC0B1089B13F0010F16D003
:10484000099B0BB100200EE02046FFF7BDFF019051
:10485000084B00930023012207491046FEF79CFDF8
:10486000032000E00B2003B0F0BD0320FBE7002095
:10487000F9E700BF34600510445D05102DE9F042F2
:1048800086B007460E46994606AC002544F8045DFE
:1048900003940E9C02940D9C01940C9C0094FFF7D1
:1048A000B8FC044608B9032F0AD094B1002C37D0C5
:1048B000059808B101F0A8FA204606B0BDE8F082DC
:1048C0000C9B4A460599098F304602F0BBFB044613
:1048D000EBE705990F98FFF7C1FB0D990598FFF7D6
:1048E000E5FD04460028E1D03846FFF76DFF029051
:1048F0000196134B00930023012212491046FEF744
:104900004BFD032F04D000210F98FFF7A7FBCDE745
:104910004FF0FF32059B198F304602F01BFBF2E788
:104920003846FFF751FF02900196074B0093002392
:10493000032204490120FEF72FFD0124BCE700BF3C
:10494000CC5F0510445D0510046005102DE9F041B1
:1049500084B080460D4617461C460B9E0196009378
:1049600013460A4601460320FFF756FF034618B1D7
:10497000184604B0BDE8F08103960A9B02930194A7
:1049800000972B46034A41460320FFF777FF034673
:10499000EEE700BF916A00102DE9F04184B00446B3
:1049A0000D46164698460B9F0197009313460A46FC
:1049B00001460420FFF730FF034618B1184604B043
:1049C000BDE8F08132462946204602F0F6FA039708
:1049D0000A9B0293CDF8048000962B46034A214699
:1049E0000420FFF74BFF0346E8E700BF916B001080
:1049F00070B586B00446483038F0CCFFC8B194F8A2
:104A0000505094F83000FFF7DFFE06462846FFF7C7
:104A10009DFE049003940296E3680193134B009368
:104A20000023032212490120FEF7B6FC284606B0F7
:104A300070BD0121204601F099F994F83030032B24
:104A400001D00825DDE70294E3680193094B009348
:104A50000023042206490120FEF79EFC4FF0FF329E
:104A6000218FE06802F076FA0825CAE7C4600510D5
:104A7000445D051064600510F0B585B004460E462F
:104A8000FFF7F0FA002840D0204602F0BFFD0028D2
:104A90003FD0E56805F11C07384638F099FE2B7EBB
:104AA000E3B194F83000FFF78FFE03940290019574
:104AB000194B00930023012218491046FEF76CFCA5
:104AC0000525384638F0A4FECDB10021204601F07E
:104AD0004DF9D8B1204601F097F917E094F830006D
:104AE000FFF772FE0394029001950D4B0093002393
:104AF00003220A490120FEF74FFC0025E1E7314679
:104B00002046FFF775FF0546DFE70B25284605B071
:104B1000F0BD0325FAE700BF5C5B0510445D05109E
:104B2000BC5B051038B504460D46FFF74DF822462C
:104B3000A16A01F081FC29462046FFF79DFF38BDA0
:104B40002DE9F04387B080460F4691461E4600236C
:104B50008DF8173004930393FFF784FA002829D1C6
:104B600000250B2474B9049B6B609DF817306B70A3
:104B700000236B61AB685B682A46454904989847F7
:104B800000283DD1002C47D0002C4DD0002C52D015
:104B9000002C59D0002C65D101963E4B0093002388
:104BA00003223D490120FEF7F7FB3560204607B0A0
:104BB000BDE8F083384602F06FFDD8B1EEB10DF1DB
:104BC000170204A94046FFF767FA10B10025052433
:104BD000C8E7324B0093002303222F490120FEF740
:104BE000DBFB3A8A41463878FFF766FB054688B119
:104BF0000024B7E700250324B4E700250324B1E728
:104C0000274B00930023012223491046FEF7C4FBE3
:104C10000524B9E70424B5E703AB002201212846A7
:104C200001F028F80446AFE73A4629460398FFF713
:104C3000C3FB0446AAE7039901F144023C3138461C
:104C400001F026FD0446A3E749460398FFF76AFFF3
:104C500000230393044600289CD12846FFF7BCFBA1
:104C6000044697E72046FFF771FD01900D4B009336
:104C70000023012208491046FEF78EFB9DF81730ED
:104C80000093039B424604992846FFF7C5FB8DE736
:104C9000C15800107C590510445D0510F4580510EA
:104CA0001859051048590510F0B587B005460E464D
:104CB00000230593FFF7D6F9044680B116F0010FE3
:104CC00001D001230CE005F11C06304638F080FDD0
:104CD0002F7E304638F09CFD2FBB002300E00123DF
:104CE00023B113B3002C44D107B0F0BD01953B4B69
:104CF0000093002303223A490120FEF74DFB05AB48
:104D000000220121284600F0B5FF03460028E8D123
:104D10000598062380F8303000F144013C3001F062
:104D2000EBFF0346DDE70123DBE7FEF74DFF059BC5
:104D30001A46996A01F080FB41F288310598FFF725
:104D40009BFE48B90195274B009300230322244979
:104D50000120FEF721FBC5E7FFF7F8FC0290019563
:104D6000214B0093002302221D490120FEF714FB72
:104D7000B8E72946002000F02DFD05F11C0630465D
:104D800038F026FD05F12807E86A0BE0446803685F
:104D90005C60436802681A60002303604360FFF7A9
:104DA00069FB20468742F1D105F13007686B0BE0C3
:104DB000446803685C60436802681A60002303600B
:104DC0004360FFF757FB20468742F1D1304638F069
:104DD0001FFD2846FFF7AEFB86E700BFA059051070
:104DE000445D0510D0590510005A051010B584B067
:104DF000002404AB43F8044D01930094054BFFF7E6
:104E0000A5FD012801D004B010BD06990398FFF755
:104E100033FEF8E70100008010B584B0002404AB35
:104E200043F8044D01930094054BFFF7B5FD0128AD
:104E300001D004B010BD06990398FFF71DFEF8E7F6
:104E40000100008030B585B000220392D9B10C4634
:104E50000A78012A0DD04FF0004200211D46009132
:104E600000232146FFF7F6FB2378012B04D005B081
:104E700030BD064A03A9F1E70128F8D12946039875
:104E8000FFF7FAFDF3E70320F1E700BF0100008020
:104E900002E000F8013B31B101F07F03C909F8D00D
:104EA00043F08003F5E77047F0B585B007460B8CFB
:104EB0001433B3F5803F0ED34FF6FF720292019385
:104EC000154B00930023022214490120FEF764FAD7
:104ED000384605B0F0BD0D461646C3F307230370F0
:104EE0000B8C1433437002370A8CC96938464AF078
:104EF00026FBB5F820C007EB0C04094D0FCD47F891
:104F00000C006160A260E3602868206104F1140075
:104F100001233370DDE700BFF0610510445D05102B
:104F2000D861051038B51546130A03704270841C09
:104F300020464AF004FB601938BD000030B585B04A
:104F400005460C4600238DF80F300B783BB9E1691C
:104F500011B19DF80F30F3B1284605B030BD114BAB
:104F600000930023032210490120FEF715FAE3699C
:104F70003BB10DF10F0221462846FFF795FF05468C
:104F8000E5E7142209492846FFF7CCFF054601232F
:104F90008DF80F30DBE7228C2846FFF7C3FF05466C
:104FA000DAE700BF4C610510445D0510D8610510BB
:104FB0007F2807D9B0F5804F06D3B0F5001F05D282
:104FC000032070470120704702207047042070477B
:104FD000064BBFF35B8F53E8000F821C43E80021B0
:104FE0000029F8D1BFF35B8F80B27047142300080B
:104FF00070B50E461546048B0C34C26822B1138975
:10500000126913441C44043403783BB1028C02F14E
:105010001401B1F5803F18D214441634C2691AB194
:1050200013B9038C1C440234436A13B1038D1C442E
:1050300002342046FFF7BCFF01302044054B984264
:1050400005D834602860012070BD0023E6E7002009
:10505000FAE700BF1400050038B50446102302F833
:10506000013B1046FFF714FF04222549FFF75AFFC2
:1050700004230370637803B10223E2698AB10AB1A1
:1050800043F08003626A0AB143F04003E268A2B1D0
:1050900043F004051178012909D002292CD02B46B0
:1050A00007E021780029EAD043F08003EEE743F0DF
:1050B0000C0352780AB143F020034370238A1B0A81
:1050C0008370237CC370228B61690430FFF72AFF51
:1050D000E36843B11A895968FFF724FFE3681A8A25
:1050E000D968FFF71FFF2146FFF728FF616A11B15A
:1050F000228DFFF717FF38BD43F01403D9E700BF37
:10510000445D0510F8B506460F461D4606988223F5
:1051100000F8013B1146FFF7BBFE0446FFF758FFBE
:105120002880030A23706070A01C00240BE004EBAD
:1051300084039D0073191A895968FFF7F3FE735DA4
:1051400000F8013B0134BC42F1D3F8BDF8B50226AA
:10515000002400E0013494420AD204EB8407BD002D
:105160000D442D893544AE1C0328F3D1EE1CF1E724
:10517000B6F1805F09D21E603046FFF719FF01309B
:105180000644069B1E600120F8BD0020FCE70000DD
:105190002DE9F0410489A31C057805B1231D0D4CB0
:1051A000E41A0669A6420FD817468846F51828461D
:1051B000FFF7FEFE241AA64209D8C8F80050431C87
:1051C0002B443B60012000E00020BDE8F08100207E
:1051D000FBE700BFFEFFFF0FF8B5044617461E466B
:1051E0000378012B15D0022B15D0302362780AB139
:1051F00043F00103069800F8013BFFF749FE2289BE
:105200006168FFF78FFE0546237833B9226972B9CA
:10521000F8BD3223EAE73423E8E7FFF7D9FE388008
:1052200006B13560030A2B7068700235EEE7E1685D
:1052300028464AF084F9EBE7F8B506460D461F46C6
:105240000698A22300F8013B1146FFF721FE044611
:10525000FFF7BEFE3880030A23706070A01C002494
:1052600008E004EB8402930033441A895968FFF77D
:1052700059FE0134AC42F4D3F8BD000070B582B0E1
:1052800004460D4610F0040F33D010F0020F26D163
:1052900002230B702B78204E0193204B00930023A8
:1052A000042231460120FEF777F804F001036B7009
:1052B00001931B4B00930023042231460120FEF78B
:1052C0006BF814F0080F1DD1164B00930023042235
:1052D00011490120FEF760F8002002B070BD124BAA
:1052E0000093002304220C490120FEF755F8072003
:1052F000F3E710F0020F02D001230B70CAE700237E
:105300000B70C7E7094B00930023042231460120AC
:10531000FEF742F80020E0E7445D05101461051037
:105320002061051040610510086105103461051009
:1053300000F0F00040280CD007D9B02809D0D028C0
:1053400007D0902805D000207047202801D03028B1
:10535000F9D1012070470000F0B587B006460F462E
:10536000002406AD45F8044D029101901A4B0093BC
:105370002346042219490120FEF70EF82B46224647
:105380002146304600F076FC044630B11CB1059849
:1053900008B100F039FD07B0F0BD0599022381F88E
:1053A000303001F144023C31384601F00DFB044637
:1053B0000028EBD100220A49059800F02DFE044692
:1053C0000028E3D00196074B0093002301220349F4
:1053D0001046FDF7E1FFD9E7F0650510445D0510C3
:1053E0003964001030660510F0B583B005460F46ED
:1053F00060204AF01FF8044650B3602200214AF0B2
:10540000C2F801232372E5603C60384601F066FA79
:10541000064630BB94F82C30012B43D07B68A36444
:1054200000237B6005F11C06304638F0D1F905F108
:105430002803EA6A626023601460EC62304638F048
:10544000E7F92846FFF746F8002830D1052609E09D
:105450001B4B0093002302221A490120FDF79CFFF9
:105460000426E6B1DCB1A36C03B17B601C35284691
:1054700038F0AEF96CB1636803B3226802B101225F
:105480003AB122685360636822681A60002323607F
:105490006360284638F0BCF9204649F0D3FF304617
:1054A00003B0F0BDB9892846FFF756FFB6E70022E2
:1054B0000549204600F0B0FD0646D2E70022DFE7AE
:1054C00088650510445D0510AD5F001070B5054698
:1054D0001E46084690470446049A3146284600F086
:1054E000DFFE18B180F8504000F066FF204670BD26
:1054F00030B583B00446084601F0D4FB0546C0B978
:1055000004F1A4030022BFF35B8F53E8001F0129BD
:1055100003D143E800200028F7D1BFF35B8F0BD104
:1055200001940A4B00930023042209490120FDF74E
:1055300033FF284603B030BD0194064B0093134659
:10554000022203490120FDF727FFF2E75465051009
:10555000445D05102065051030B585B004460D4644
:105560008B7B03F0F003402B41D012D8202B28D0A6
:10557000302B65D10190414B009300230422404918
:105580000120FDF709FF29462046FFF72DFF0546BC
:1055900028E0902B3FD0B02B52D10190394B009393
:1055A0000023042236490120FDF7F6FE05F10C0325
:1055B00000930423344A29462046FFF787FF054617
:1055C00010E00190314B0093002304222C4901206C
:1055D000FDF7E2FE002300932D4A29462046FFF7FF
:1055E00075FF0546002D3AD1284605B030BD019023
:1055F000284B00930023042221490120FDF7CCFE13
:1056000005F10C0300930123234A29462046FFF7A6
:105610005DFF0546E6E70190204B0093002304223E
:1056200017490120FDF7B8FE2B4643F80C4B0093B9
:1056300003231B4A29462046FFF748FF0546D1E7CA
:105640000194184B0093002304220D490120FDF71B
:10565000A3FE29462046FFF74BFF0546C2E7284632
:10566000FFF774F8029001940F4B0093002301227E
:1056700003491046FDF790FEB6E700BF0864051029
:10568000445D051090640510156C0010D86305107A
:105690000967001038640510116A00106464051071
:1056A000156B0010C0640510F064051030B583B0B0
:1056B000154602AB002203F8012D0C6901221946A0
:1056C000A047012802D0002003B030BD9DF807306C
:1056D0002B70F9E7F0B583B007460E461546002457
:1056E0008DF8074006E00DF10702B1683846FFF774
:1056F000DDFF0134AC42F6D303B0F0BDF0B585B0A8
:10570000956815B9002005B0F0BD14460E46074651
:10571000284649F08FFE606050B1B3681B692A4685
:10572000014638469847A368834214D10020EAE72F
:10573000A37B039302950196084B0093002301225B
:1057400007491046FDF728FEA26831463846FFF7A4
:10575000C1FF0420D7E70720D5E700BF7C63051011
:10576000445D0510F0B585B007460E4615468968BC
:1057700000F048FF0446A873FFF7DAFD48B1B168AE
:10578000384600F04CFFA860B0F1805F1CD00024C8
:105790000AE0029401960D4B0093002301220C496C
:1057A0001046FDF7F9FD07243CB11CB1686808B14B
:1057B00049F048FE204605B0F0BD2A46314638463D
:1057C000FFF79CFF0446F0E70724EEE7B8650510F5
:1057D000445D05102DE9F0478EB080460C46282226
:1057E000002104A849F0CFFE04F11C05284637F03B
:1057F000EFFF01232376D4F8A83013BB2769D4F830
:105800000CA0A3685E69D4F80490284638F000F82C
:10581000002E40D04846B047002831D10194234B98
:1058200000930023032222490120FDF7B5FD2FB18B
:1058300004948DF8148004A95046B8470EB0BDE812
:10584000F087FEF7C1F90022A16FFEF79EFA00284B
:10585000D4D1D4F88C0001F057FA0023C4F8A83052
:10586000C4F88C30C4F89430626A013A62620194E0
:10587000104A009204220E490120FDF78DFDBDE77C
:10588000029001940C4B009300230222084901204E
:10589000FDF782FDCBE70194084B00930023022221
:1058A00003490120FDF778FDC1E700BFB062051094
:1058B000445D051070620510E06205102463051058
:1058C00030B587B00D4600230293039304930593EC
:1058D00002AAFFF747FF044618B1072C0CD007B007
:1058E00030BD02A92846FFF737FE0446039800287A
:1058F000F3D049F0A7FDF0E70195064B0093002394
:10590000012205491046FDF747FD29460120FFF712
:1059100061FFE4E724620510445D05100A7890F801
:1059200030309A4201D0002070474B6833B11B8859
:10593000008F834214BF0020012070470120704770
:105940002DE9F04182B007460C4615461E4602F08E
:10595000010860220021204649F015FEE76001237E
:10596000E362656384F85030B8F1000F09D1FEB1ED
:10597000483496E8030084E80300002002B0BDE844
:10598000F0811A46002104F1480037F06DFF20B184
:10599000E36A0133E3620020F0E70197054B0093CF
:1059A0000023012204491046FDF7F6FC0420E5E738
:1059B0000020E3E7906D0510445D051030B583B01D
:1059C00004460190244B0093002304222349012024
:1059D000FDF7E2FCA368DB68D4F89420D4F88C10BF
:1059E00060689847D4F8943083420BD001941C4BE4
:1059F00000930023012219491046FDF7CDFC002039
:105A000003B030BD04F11C05284637F0E1FE37F045
:105A100041FAC4E91201284637F0FAFE04F1A40362
:105A20000125BFF35B8F53E8002F002A03D143E821
:105A300000510029F7D1BFF35B8F41F28833C4F8DE
:105A4000AC300194074B00930023042203492846FD
:105A5000FDF7A2FC2846D3E7106F0510445D051042
:105A6000386F0510686F05102DE9F04788B0804643
:105A70000791144601925A4B00930023042259497E
:105A80000120FDF789FCD4F8AC20D4F8A8309A4264
:105A900051D00194544B009300230422514901201A
:105AA000FDF77AFC04F1A403BFF35B8F53E8005FBA
:105AB0002A1C43E800210029F8D1BFF35B8F002D99
:105AC0006AD10194494B00930023042245490120E7
:105AD000FDF762FCD4F8A830C4F8AC3001270DB94A
:105AE000D4F8AC5004F11C09484637F071FE08AEFA
:105AF00056F8040DFEF76FF93346024621463C483E
:105B0000FEF72EF92A4607994046FEF7F7F90028D6
:105B100050D102950194374B009300230422314960
:105B20000120FDF739FC484637F072FE002F4FD0B8
:105B300008B0BDE8F08704F11C05284637F048FEA0
:105B400037F0A8F9D4E91267861B61EB0707B14665
:105B5000BA46284637F05CFED4F8A83000218F42C0
:105B600008BF9E4210D20493CDE9029A0194224BC1
:105B70000093002304221B490120FDF70DFCD4F8FB
:105B8000A850AD1B0127AAE72046FFF717FF0746DD
:105B90000028CBD00025A2E741F28833029301947C
:105BA000164B0093002301220E491046FDF7F4FB2B
:105BB0000027BBE7FEF710F902900194104B009309
:105BC0000023012207491046FDF7E6FB0027AAE75C
:105BD00021460220FFF7FEFD2046FEF7ABFCA7E7BB
:105BE000E86A0510445D05109C6B0510C86B051034
:105BF000695A0010346C0510186B0510F46B051011
:105C0000686C051030B585B00446C568436D826D7B
:105C1000934211D8012B01D02B7823B32B78C3B931
:105C200004F13802216CE06B00F028FE2C78ACB94E
:105C30000124204605B030BD0392029001950B4B24
:105C40000093002304220A490120FDF7A5FB00244C
:105C5000EFE705F11C0037F0BBFDE1E705F11C00A3
:105C600037F0D6FDE5E70124E3E700BF3C6D051002
:105C7000445D05102DE9F04782B005460F46904679
:105C80009A4611F0010F0CD05AB1334B0093002308
:105C9000012232491046FDF77FFB4FF00009032433
:105CA0000EE001952E4B0093002304222B49012086
:105CB000FDF772FB2846FEF70DFC814680B10024FB
:105CC000D4B100264CB384B334B1B9F1000F3ED146
:105CD00016B1304649F0B6FB204602B0BDE8F08769
:105CE0000195204B0093002301221C491046FDF72B
:105CF00053FB00260524E5E7602049F09BFB0646A0
:105D00000028DFD10195184B00930023012213498D
:105D10001046FDF741FB0424D5E743463A46314699
:105D20002846FFF70DFE0446CDE705F11C0738466F
:105D300037F04EFD05F12803EA6A726033601660A1
:105D4000EE62384637F064FDCAF80060BCE72846CA
:105D5000FEF7F0FBBCE700BF6C660510445D051064
:105D6000A4660510D86605102C67051070B586B0BE
:105D70000446C56849B1FDF727FF0022A16AFEF776
:105D800004F8064628B3002E35D105F11C0630462E
:105D900037F01EFDE36A013BE36294F83000FEF742
:105DA00013FDE36A5A1C0593049203940290019533
:105DB000124B00930023042211490120FDF7ECFA55
:105DC000E36AB3B10024304637F022FD204606B026
:105DD00070BD94F83000FEF7F7FC03940290019533
:105DE000084B00930023042205490120FDF7D4FA53
:105DF000C9E70124E7E70024E8E700BFAC67051026
:105E0000445D05107867051070B586B00446C56816
:105E100090F83000FEF7D8FC0394029001954B4BAC
:105E20000093002304224A490120FDF7B5FA05F149
:105E30001C06304637F0CCFC3CB16368002B45D0E3
:105E4000236803B10123002B42D194F83000FEF700
:105E5000BBFC0394029001953E4B00930023042267
:105E60003B490120FDF798FA304637F0D1FCE06B52
:105E7000002847D000F048FF94F83000FEF7A4FC5B
:105E8000039402900195344B00930023042230497F
:105E90000120FDF781FA636B13F0010F42D194F8F2
:105EA0003000FEF791FC0394029001952B4B009378
:105EB0000023042226490120FDF76EFA204649F00E
:105EC000C1FA2846FEF736FB06B070BD0023BAE7DC
:105ED00094F83000FEF778FC049503940290019545
:105EE0001F4B00930023042219490120FDF754FAA7
:105EF000236862685A60636822681A60002323601E
:105F00006360B1E794F83000FEF75EFC0394029002
:105F10000195144B0093002304220D490120FDF745
:105F20003BFAB8E704F1480037F0D0FC94F83000B1
:105F3000FEF74AFC0394029001950B4B009300235B
:105F4000042203490120FDF727FAA8E7F8670510A6
:105F5000445D051084680510DC680510A86905100B
:105F600034680510186905106869051010B58AB005
:105F7000144628220021684649F005FBE368009397
:105F800094F830308DF80430029494F850308DF845
:105F90000C30E36C6946A06C984700212046FFF75F
:105FA000E5FE2046FFF730FF0AB010BD70B58AB09D
:105FB000144628220021684649F0E5FAE0681C30C2
:105FC00037F006FC6CB1636823B3226802B101228A
:105FD0003AB122685360636822681A600023236024
:105FE0006360E0681C3037F013FC03AD04F12C064D
:105FF0000FCE0FC596E8070085E807006946E06800
:1060000000F059FFA06C49F01DFA204649F01AFA39
:106010000AB070BD0022DBE7F0B587B00446084641
:10602000154604F1280304F110022146FDF798FEFD
:10603000FDF7CAFD2A46A16AFDF760FF10B90020EE
:1060400007B0F0BD0546E66894F83000FEF7BCFBEB
:1060500007462846FDF7C0FE049003940297019678
:10606000044B00930023022203490120FDF794F919
:106070000620E5E7E86C0510445D0510F0B587B033
:106080000446C668436D01334365826D93423FD831
:10609000C56D6900C1654EF66020814200D9E0659A
:1060A00005950492039302940196274B00930023D5
:1060B000042226490120FDF76FF9636D012B0CBF07
:1060C0000127002733D02A4621492046FFF7A4FFA5
:1060D0000546B8B9B7B174B16368002B2CD02268FB
:1060E00002B101223AB122685360636822681A60E3
:1060F00000232360636006F13003726B62602360EB
:1061000014607463D7B9B5FA85F0400907B0F0BDE3
:1061100041F288350395029001960E4B00930023BF
:1061200004220A490120FDF737F90027CBE706F1E1
:106130001C0037F04DFBC6E70022D3E706F11C0038
:1061400037F066FBDFE700BFBC6E0510445D05104D
:1061500039640010586E05102DE9F0410446C668F8
:10616000436B03F00105836D3BB1FFF787FF0546E5
:1061700030BB062384F8503022E00F4606F11C089D
:10618000404637F025FBF5B93B7823BB6CB163681B
:10619000FBB1226802B101223AB122685360636800
:1061A00022681A6000232360636006F13002736B7B
:1061B000636022601C6074630125404637F028FB51
:1061C0002846BDE8F08100212046FFF7CFFD38705A
:1061D000DAE70022E0E70025EFE700002DE9F041D3
:1061E00084B0C568C36C002B4FD0044605F11C0673
:1061F000304637F0EDFA002225492046FFF70CFF24
:106200000746002830D1D4F80C8094F83000FEF70F
:10621000DBFA03940290CDF804801E4B0093002318
:1062200004221D490120FDF7B7F86CB16368CBB1BA
:10623000226802B101223AB1226853606368226881
:106240001A6000232360636005F12802EB6A636033
:1062500022601C60EC62304637F0DAFA384604B04F
:10626000BDE8F0810022E6E7E56894F83000FEF72B
:10627000ABFA039402900195084B0093002302228D
:1062800005490120FDF788F8E5E70627E6E700BFA6
:106290006D5F0010D86D0510445D0510146E05107B
:1062A0002DE9F04188B006460F46144600230693B8
:1062B0008DF8181007920846FEF786FAE4B1238895
:1062C000039302900196374B009300230422364932
:1062D0000120FDF761F806F11C08404637F078FA16
:1062E00006F13005746BA54208D006A92046FFF7D9
:1062F00015FB20B96468F6E70023E1E70024002CD1
:106300002BD0636B03F00103A26DF2B9002B33D1E4
:106310003846FEF759FA02900196244B0093002369
:10632000042221490120FDF737F8236862685A608A
:10633000636822681A60002323606360404637F078
:1063400067FA204608B0BDE8F081FDF73DFC002269
:10635000A16AFDF71AFD0028DAD03846FEF734FAB4
:1063600002900196124B0093002304220E49012053
:10637000FDF712F80024E1E7E36A0133E3623846EF
:10638000FEF722FAE36A5A1E0593049203940290E0
:106390000196084B00930023042203490120FCF7D7
:1063A000FBFFB5E7EC690510445D0510386A051080
:1063B000646A0510AC67051030B585B00446456BBE
:1063C00005F0010590F83030032B20D025B9204688
:1063D000FFF704FF062818D100212046FFF7C6FC6E
:1063E00010BBE56894F83000FEF7EEF903940290D4
:1063F00001950F4B0093002304220E490120FCF766
:10640000CBFF04F1480037F0EDFA05B030BD90F84D
:106410005030002BDAD0092BD8D04FF0FF32018F4B
:10642000C06800F097FDD1E72046FFF7EDFCECE7F0
:10643000946A0510445D0510F0B587B0144600233A
:106440008DF81730D668536B03F00105936D83B94F
:1064500094F85030012B15D094F85030012B49D0CE
:1064600000209DF81730002B4AD100284CD007B0EF
:10647000F0BD1046FFF7C6FB0028E9D10A2384F8D7
:106480005030E5E794F83000FEF79EF9039402904F
:1064900001961F4B0093002304221E490120FCF7A4
:1064A0007BFFB368DB68626CE16B70689847636C74
:1064B000834203D0052384F85030CDE706F11C0752
:1064C000384637F085F936F0E5FCC6E91201384662
:1064D00037F09EF994F83030062B07D0002DBBD151
:1064E000E36C002BB8D184F85030B5E7002384F872
:1064F0005030B1E70DF117012046FFF72DFEB0E750
:106500002046FFF781FCB2E72046FFF755FFAEE7D4
:10651000AC6C0510445D051000B583B089B9836883
:10652000934203D3002003B05DF804FB01920D4BAE
:1065300000930D4B04220D490120FCF72DFF07208D
:10654000F1E783680232934201D30020EBE7019226
:10655000074B0093044B042204490120FCF71CFF65
:106560000720E0E72C74051010750510445D051038
:10657000687405102DE9F04184B006460F46904638
:10658000002425461EE002930194194B0093194BF9
:10659000042219490120FCF7FFFE072D11D122E04A
:1065A0000194164B0093134B042213490120FCF76E
:1065B000F3FE2246B8F80C10D8F8000000F0CAFC30
:1065C00009250134B4420ED23B5D022BDBD9802B6E
:1065D000E6D001930A4B0093064B042206490120A2
